:1000000012308A00DA2A0000013083166207840069
:100010008313631883170130800062088400831300
:1000200063188317800116306207840083136318F6
:10003000831780018312080083166208023C0318AC
:1000400025280130F800272827280030F8008312DF
:100050008A110A16672B2B308400831700080319B6
:100060003F280530F800F701F70B3428F80B332848
:100070002E30F700F70B3A283D28800B3128080076
:100080008E30F700831603171508F8001408F900DE
:10009000FA01F808031D56287908F800F90108301C
:1000A000F702F808031D5628F7015E280310F81B15
:1000B0005D28F90DF80DF7035628F8138312031382
:1000C0000800831603171108980015089806981F52
:1000D0006E2803110310911B0314A1281108980026
:1000E000140899001008990203197C28981FA12868
:1000F0000308013A8300A128150899001108990204
:1001000003198828981FA1280308013A8300A12811
:10011000160899001208990203199428981FA1281B
:100120000308013A8300A1281708990013089902CF
:100130000319A028981FA1280308013A8300A128C9
:100140000310831203130800031767080319972984
:100150008316940083126B0803199729831694025F
:10016000031CB9287F309407031CB82883129729F1
:10017000C328813094020318BF2883129729031DD6
:10018000C328831297291408F700F801F901FA012E
:1001900093018312680883169200921783126908EC
:1001A0008316910083126A08831690001930940018
:1001B00083126E08831690020318F0280130910212
:1001C0000318F02892020318F02893020318F0286D
:1001D000930A920A910A83126E08831690072E29B9
:1001E00083126D08831691020318112901309202BF
:1001F00003181129930203181129930A920A8312F2
:100200006D088316910783126E0883169007031CEE
:100210002E29910A031D2E29920A031D2E29930AC5
:100220002E2983126C0880388316920203182D2918
:100230000130930203182D29930A83126C08803829
:100240008316920783126D0883169107031C0329F6
:10025000920A031D0329930A03297A14940B312966
:100260003C290310900D910D920D930D0310FA0D82
:10027000F90DF80D950DD828151C44290310F80C1C
:10028000F90CFA0C950C4829F70B48298312972989
:10029000951B77290310900D910D920D930D8312EC
:1002A0006E088316900203185F290130910203182B
:1002B0005F29920203185F299302031C8829831285
:1002C0006D088316910203186C29013092020318FD
:1002D0006C299302031C882983126C0880388316CA
:1002E00092020318772901309302031C8829FA0A25
:1002F000031D8829F90A031D8829F80A031D882986
:10030000F70A031D852983129729F80CF90CFA0CBA
:10031000831268088316940083126C08831694066F
:10032000941F9429F8179C29F8139C298312F7012C
:10033000F801F901FA0183168312031308008E30C5
:10034000F700831603171008F7021108F9001208C6
:10035000F800F917F7080319B8290310F908031D65
:10036000B429F8080319B829F90CF80CF70BAD29D2
:10037000911FBF29F809F909F80A0319F90A83122C
:10038000031308008316031710080319342A980072
:1003900014080319342A98070318D5297F309802C6
:1003A000031C342A0319342AD929813098070318E9
:1003B000342A1808F700F801F901FA0111089C0025
:1003C0009C1712089B0013089A0018309800990196
:1003D0001A1C022A1708FA07031CF429F90A031D3C
:1003E000F429F80A031999171608F907031CFB29C1
:1003F000F80A031999171508920092171208F807BE
:1004000003189917990DF80CF90CFA0C9C0C9B0C1D
:100410009A0C0310980BE7290130F7070318342AC8
:10042000F81B192A9C0DFA0DF90DF80DF7030319A5
:10043000342A9C1F2A2AFA0A031D2A2AF90A031DB4
:100440002A2AF80A031D2A2AF80CF90CFA0CF70AD2
:100450000319342A1108990015089906991F322AA0
:10046000F817382AF813382AF701F801F901FA01C8
:100470008312031308008030831C432A831603175A
:10048000990683120313831603179E019F01150813
:100490009D0019089D0614080319322B9C00F700D3
:1004A000180803193B2B9C020319D72A031C952A11
:1004B0001908A200A2171A08A1001B08A0009F019A
:1004C0000310A20CA10CA00C9F0C9C0B5F2A9D1F7B
:1004D0006C2A1E144F2B1E101C101E169730840001
:1004E0008317642B1E129D1B7F2A1C1C8A2AA20CB8
:1004F000A10CA00C9F0CF70A03194A2B8A2AA21BF5
:100500008D2A03109F0DA00DA10DA20DF703031955
:100510004A2B7F2A1E17F72A1E1315089D009D1FC0
:10052000932AA217432BA213432B18089C00F70011
:1005300014089C021508A200A2171608A1001708AB
:10054000A0009F010310A20CA10CA00C9F0C9C0BFF
:10055000A12A9D1FAE2A9E144F2B9E101C109E1682
:100560009B3084008317642B9E129D1BC12A1C1C88
:10057000CC2AA20CA10CA00C9F0CF70A03194A2B41
:10058000CC2AA21BCF2A03109F0DA00DA10DA20DF6
:10059000F70303194A2BC12A9E17F72A9E1319083D
:1005A0009D009D1FD52AA217432BA213432B190888
:1005B000A200A2171A08A1001B08A0009D1FE42A90
:1005C000A2131E154F2B1E119F011C109730840083
:1005D0008317642B9D1B0D2B15089D001C1CF72AEF
:1005E000A20CA10CA00C9F0CF70A03194A2B9F1F09
:1005F000082BA00A031D082BA10A031D082BA20A21
:10060000031D082BA20CA10CA00CF70A03194A2BFE
:100610001E1B8C2A9E1BCE2A2C2B8030A206A21FCA
:10062000152B4F2B19089D00222B15089D00A208A1
:10063000031D222BA108031D222BA008031D222B22
:10064000F701432BA21B2C2B03109F0DA00DA10D16
:10065000A20DF70B222B4A2B9D1F302BA217432BE9
:10066000A213432B1808F7001908A2001A08A100CA
:100670001B08A000432B1408F7001508A200160859
:10068000A1001708A0002208F8002108F90020089E
:10069000FA00822BF701F801F901FA01822B9F0180
:1006A000A009A109A2099F099F0A031D5D2BA00AA9
:1006B000031D5D2BA10A0319A20A1E186B2A9E189E
:1006C000AD2A1E19E32A122B0008A007031C6E2B6B
:1006D000A10A031D6E2BA20A03191C14840300082F
:1006E000A107031C762BA20A03191C14840300081B
:1006F000801F803AA20703181C141E1A722A9E1A21
:10070000B42AEA2A83120313080003176D10610844
:10071000E6006008E5005F08E4005E08E3006108A9
:1007200083169300831260088316920083125F0879
:100730008316910083125E0883169000970196013C
:1007400095019401831203136120031CAD2B031741
:100750006D146408803AE4000313031766088316D7
:10076000930083126508831692008312640883162F
:1007700091008312630883169000970196019501FA
:100780008E3094008312031361200318C92B031DBC
:10079000F02B0317660883169300831265088316EF
:1007A00092008312640883169100831263088316F3
:1007B0009000831203139F21790883160317950075
:1007C000780894008312031340207A080317EA0084
:1007D0007908E9007808E8007708E700042D03139A
:1007E0000317660883169300831265088316920028
:1007F00083126408831691008312630883169000A5
:10080000803097009630960018309500963094000E
:10081000831203136120031CFB2C03176608831645
:10082000930083126508831692008312640883166E
:100830009100831263088316900097019601950139
:100840007030940083120313C2217A0883160317B1
:10085000930079089200780891007708900083123D
:1008600003139F2179080317EC007808EB00660852
:10087000831693008312650883169200831264081E
:1008800083169100831263088316900097019601E6
:1008900095017030940083120313C2217A088316E5
:1008A0000317930079089200780891007708900068
:1008B00083126C088316950083126B0883169400CC
:1008C0008312031340208314831603171308970021
:1008D0001208960011089500100894007A089B00F1
:1008E00079089A0078089900770898008312031312
:1008F0003B22831603179301920191018E309000E1
:100900007A0897007908960078089500770894008F
:1009100083120313C2217A080317E6007908E50061
:100920007808E4007708E3006C08831695008312CA
:100930006B08831694008312031340208316031759
:100940009301920191018E3090007A089700790806
:100950009600780895007708940083120313C2214B
:100960007A080317EA007908E9007808E8007708B0
:10097000E7006608831693008312650883169200C9
:100980008312640883169100831263088316900013
:10099000831203139F2179088316031795007808A3
:1009A0009400831203134020831003176A088316F0
:1009B00097008312690883169600831268088316CD
:1009C000950083126708831694007A089B007908C3
:1009D0009A007808990077089800831203133B2245
:1009E0007A080317EA007908E9007808E800770830
:1009F000E700042D031303176608EA006508E90001
:100A00006408E8006308E700660883169300831211
:100A1000650883169200831264088316910083127E
:100A2000630883169000831203139F2179088316AD
:100A30000317950078089400831203134020831451
:100A400003176608831697008312650883169600BD
:100A5000831264088316950083126308831694003A
:100A60007A089B0079089A0078089900770898001E
:100A7000831203133B227A080317E6007908E50086
:100A80007808E4007708E3006D1C492D6808803A77
:100A9000E8006608831693008312650883169200A7
:100AA00083126408831691008312630883169000F2
:100AB0009701960195019401831203136120031994
:100AC000AE2D03176D1C882DE208031D882D83149D
:100AD0006A088316970083126908831696008312AA
:100AE00068088316950083126708831694009B019B
:100AF0009A0199017F309800831203133B227A08F0
:100B00000317EA007908E9007808E8007708E700A9
:100B10006D18AD2D620BAD2D83106A0883169700FA
:100B2000831269088316960083126808831695005D
:100B300083126708831694009B019A0199017F3004
:100B40009800831203133B227A080317EA007908FE
:100B5000E9007808E8007708E70003130317610845
:100B600083169300831260088316920083125F0835
:100B70008316910083125E088316900097019601F8
:100B800095019401831203136120031DCD2D0317DA
:100B9000EA01E901E801E701031303176708F70019
:100BA0006808F8006908F9006A08FA0003130800E9
:100BB000031751088316930083125008831692007E
:100BC00083124F088316910083124E0883169000FB
:100BD0009701960195019401831203136120031973
:100BE000CD2E03174D08EA004C08E9004B08E80039
:100BF0004A08E7005108EE005008ED004F08EC00ED
:100C00004E08EB000313A4207A080317D9007908D3
:100C1000D8007808D7007708D600590883169300C3
:100C20008312580883169200831257088316910086
:100C3000831256088316900097019601950194013E
:100C4000831203136120031C562E03174D08EA007C
:100C50004C08E9004B08E8004A08E7005108EE009C
:100C60005008ED004F08EC004E08EB000313A420E1
:100C70007A080317D9007908D8007808D7007708D0
:100C8000D6005908DD005808DC005708DB0056087C
:100C9000DA005D08E1005C08E0005B08DF005A084C
:100CA000DE000130E20003138523852E03174D0873
:100CB000EA004C08E9004B08E8004A08E700510840
:100CC000EE005008ED004F08EC004E08EB00031357
:100CD000A4207A080317D9007908D8007808D7002B
:100CE0007708D6005908DD005808DC005708DB00FB
:100CF0005608DA005D08E1005C08E0005B08DF00F0
:100D00005A08DE00E201031385237A080317D50091
:100D10007908D4007808D3007708D20055088316E4
:100D2000930083125408831692008312530883168B
:100D30009100831252088316900083125108831683
:100D40009700831250088316960083124F0883166B
:100D5000950083124E088316940083120313C22158
:100D6000831403174D088316970083124C088316CB
:100D7000960083124B088316950083124A08831647
:100D800094007A089B0079089A00780899007708FF
:100D90009800831203133B22CD2E08008E30F700FB
:100DA00003176508F8006408F900FA01E51FDD2E55
:100DB000F809F909F90A0319F80AF808031DEA2ED7
:100DC0007908F800F9010830F702F808031DEA2E47
:100DD000F701F32E0310F81BF12EF90DF80DF703B0
:100DE000EA2EE51FF8130313080003172F0807392D
:100DF000F7002F0CF800F80CF80C1F30F8057808F5
:100E000031078400831332188317F801F80AF70AB0
:100E10000A2FF80DF70B092FB0080319122F7808C5
:100E20008004152FF80978088005031308000317BC
:100E3000AC012C08073C031C842F831695018312F8
:100E40002C08831694008312031340207A0803179A
:100E5000B1007908B0007808AF007708AE00C5018E
:100E6000C401C3018030C2003108C9003008C80085
:100E70002F08C7002E08C6008A15031351258A11B2
:100E80007A08831603179300790892007808910076
:100E900077089000831203139F2178080317AD0091
:100EA0002B082D0503196C2F2E302C07840083137B
:100EB0000008AE00AF000130B000B201B101031371
:100EC000F52603172E08AF00B001B2018030B10043
:100ED0000313F526812F03172E302C07840083136C
:100EE0000008AE00AF00B001B201B1010313F52656
:100EF00003172E08AF00B001B2018030B100031318
:100F0000F5260317AC0A192F031308008316670888
:100F100083120317AB0003132B208316E801660826
:100F200068020318AB2F68086407840083136518F0
:100F300083170008E900690883120317AB00031345
:100F400017278316670883120317AB0003132B20A0
:100F50008316E80A8F2F831208008316E5013E30BE
:100F6000E4000930E600F430E70083128627831698
:100F7000E5014730E4000930E6006430E700831201
:100F800086278316E5015030E4000930E600193069
:100F9000E700831286278316E5015930E400093003
:100FA000E6001930E700831286278316E5013E30FC
:100FB000E4000930E6000730E70083128627831635
:100FC000E5014730E4000930E6000730E70083120E
:100FD00086278316E5015030E4000930E60007302B
:100FE000E700831286278316E5015930E4000930B3
:100FF000E6000730E700831286278A110A166D2B58
:1010000003175108D5005008D4004F08D3004E08EC
:10101000D200550883169300831254088316920059
:10102000831253088316910083125208831690008E
:101030009701960195017F3094008A118312031362
:1010400061208A150319642A01300317E400523025
:10105000E300630884008313641883177E308000E4
:10106000831455088316970083125408831696003C
:101070008312530883169500831252088316940036
:101080009B019A0199017F3098008A118312031302
:101090003B228A157A080317E6007908E5007808EC
:1010A000E4007708E3008310550883169700831245
:1010B00054088316960083125308831695008312F2
:1010C0005208831694009B019A0199017F30980081
:1010D0008A11831203133B228A1503176608EA005C
:1010E0006508E9006408E8006308E7007A08EE0094
:1010F0007908ED007808EC007708EB008A110313FB
:10110000A4208A157A080317D5007908D400780836
:10111000D3007708D2005508831693008312540831
:10112000831692008312530883169100831252088B
:101130008316900083125508831697008312540873
:101140008316960083125308831695008312520863
:10115000831694008A1183120313C2218A157A0818
:101160000317E1007908E0007808DF007708DE0067
:10117000993083169300473092008A3091007F3077
:10118000900083126108831697008312600883160B
:10119000960083125F088316950083125E088316FB
:1011A00094008A1183120313C2218A157A08031747
:1011B000E6007908E5007808E4007708E30083108A
:1011C00066088316970083126508831696008312BB
:1011D00064088316950083126308831694009B01AC
:1011E0009A019901803098008A11831203133B22DF
:1011F0008A157A080317D9007908D8007808D7002B
:101200007708D6004C3083169300F33092003A30C2
:1012100091007B309000831261088316970083123F
:1012200060088316960083125F0883169500831268
:101230005E08831694008A1183120313C2218A1553
:101240007A080317E6007908E5007808E4007708D3
:10125000E3008310660883169700831265088316DF
:101260009600831264088316950083126308831620
:1012700094002B309B009D309A00DF3099007E3027
:1012800098008A11831203133B228A157A080317E8
:10129000DD007908DC007808DB007708DA005D08FB
:1012A0008316930083125C088316920083125B08F6
:1012B0008316910083125A088316900083126108E6
:1012C00083169700831260088316960083125F08C6
:1012D0008316950083125E08831694008A11831288
:1012E0000313C2218A157A080317E6007908E5007E
:1012F0007808E4007708E3008310660883169700F7
:10130000831265088316960083126408831695007D
:1013100083126308831694009B019A0199017F3020
:1013200098008A11831203133B228A157A08031747
:10133000DD007908DC007808DB007708DA00550862
:101340008316930083125408831692008312530865
:101350008316910083125208831690008312590855
:101360008316970083125808831696008312570835
:101370008316950083125608831694008A118312EF
:101380000313C2218A157A080317E6007908E500DD
:101390007808E4007708E3006608EA006508E900D9
:1013A0006408E8006308E7005D08EE005C08ED00F3
:1013B0005B08EC005A08EB008A110313A4208A157D
:1013C0007A080317D9007908D8007808D700770879
:1013D000D6000130E4004E30E3006308840083133C
:1013E000641883177E300002E200E21BF8290D2A00
:1013F0006208003CE501E400E41BE5038A110313E5
:10140000CE268A1577080317DA007808803ADB00C1
:101410007908DC007A08DD001F2AE5016208E40093
:10142000E41BE5038A110313CE268A157A080317F5
:10143000DD007908DC007808DB007708DA005D0859
:101440008316930083125C088316920083125B0854
:101450008316910083125A08831690001830970063
:1014600072309600313095007E3094008A118312DC
:101470000313C2218A158310031759088316970096
:101480008312580883169600831257088316950016
:1014900083125608831694007A089B0079089A00F4
:1014A00078089900770898008A11831203133B2269
:1014B0008A157A080317D9007908D8007808D70068
:1014C0007708D600692A03130317D901D801D70179
:1014D000D6015608F7005708F8005808F9005908CF
:1014E000FA000313080003175108831693008312B0
:1014F00050088316920083124F08831691008312BE
:101500004E08831690003B309700AA309600383082
:1015100095007F3094008A1183120313C2218A152B
:101520007A088316031793007908920078089100CF
:10153000770890008A11831203139F218A15780877
:101540000317DE005F105108D5005008D4004F0883
:10155000D3004E08D200510883169300831250081E
:101560008316920083124F088316910083124E084F
:101570008316900097019601950194018A118312B8
:10158000031361208A15031CCD2A03175F14DE099B
:10159000DE0A5308803AD30003130317D901D80198
:1015A000D701D6010130E1005630E0006008840028
:1015B0008313611883177F305E07800055088316F8
:1015C00093008312540883169200831253088316E3
:1015D000910083125208831690003B309700AA3086
:1015E0009600383095007F3094008A1183120313DF
:1015F000C2218A157A080317E3007908E200780807
:10160000E1007708E000E5015E08E400E41BE50383
:101610008A110313CE268A158314031763088316D1
:10162000970083126208831696008312610883165E
:10163000950083126008831694007A089B0079084D
:101640009A0078089900770898008A11831203138A
:101650003B228A157A080317D5007908D400780848
:10166000D3007708D2007C30831693008830920034
:1016700059309100723090008312550883169700FC
:10168000831254088316960083125308831695001C
:1016900083125208831694008A1183120313C22105
:1016A0008A157A080317E3007908E2007808E10058
:1016B0007708E0008310630883169700831262089E
:1016C00083169600831261088316950083126008C2
:1016D00083169400E0309B0097309A0026309900E2
:1016E000753098008A11831203133B228A157A08F9
:1016F0000317DD007908DC007808DB007708DA00E2
:101700005D088316930083125C088316920083128F
:101710005B088316910083125A0883169000831287
:101720005508831697008312540883169600831277
:1017300053088316950083125208831694008A1169
:1017400083120313C2218A157A080317E30079086C
:10175000E2007808E1007708E00083106308831650
:10176000970083126208831696008312610883161D
:1017700095008312600883169400C4309B001D30CE
:101780009A001E309900783098008A118312031352
:101790003B228A157A080317DD007908DC007808F7
:1017A000DB007708DA005D088316930083125C087B
:1017B0008316920083125B088316910083125A08E5
:1017C00083169000831255088316970083125408DD
:1017D00083169600831253088316950083125208CD
:1017E000831694008A1183120313C2218A157A0882
:1017F0000317E3007908E2007808E1007708E000C9
:10180000831063088316970083126208831696007C
:101810008312610883169500831260088316940072
:101820005E309B0050309A00633099007A30980007
:101830008A11831203133B228A157A080317DD00ED
:101840007908DC007808DB007708DA005D08831689
:10185000930083125C088316920083125B08831640
:10186000910083125A08831690008312550883163C
:101870009700831254088316960083125308831628
:10188000950083125208831694008A118312031361
:10189000C2218A157A080317E3007908E200780864
:1018A000E1007708E0008310630883169700831235
:1018B00062088316960083126108831695008312CE
:1018C0006008831694001A309B00FE309A00753031
:1018D00099007C3098008A11831203133B228A15E9
:1018E0007A080317DD007908DC007808DB00770848
:1018F000DA005D088316930083125C088316920059
:1019000083125B088316910083125A088316900095
:101910008312550883169700831254088316960085
:10192000831253088316950083125208831694007D
:101930008A1183120313C2218A157A080317E30060
:101940007908E2007808E1007708E0008310630876
:10195000831697008312620883169600831261082B
:1019600083169500831260088316940018309B003C
:1019700072309A00313099007E3098008A118312BB
:1019800003133B228A157A080317DD007908DC006F
:101990007808DB007708DA00550883169300831275
:1019A0005408831692008312530883169100831201
:1019B00052088316900083125D08831697008312E5
:1019C0005C088316960083125B08831695008312C9
:1019D0005A08831694008A1183120313C2218A15B0
:1019E0008310831603179701960195017F309400A9
:1019F0007A089B0079089A0078089900770898007F
:101A00008A11831203133B228A1503175908831680
:101A10009300831258088316920083125708831686
:101A2000910083125608831690007A08970079086F
:101A3000960078089500770894008A1183120313A2
:101A4000C2218A157A080317D9007908D8007808C6
:101A5000D7007708D6005F1C472DEA01E901E801AD
:101A60007F30E7005908EE005808ED005708EC00F9
:101A70005608EB008A110313A4208A157A0803176D
:101A8000D9007908D8007808D7007708D60056081A
:101A9000F7005708F8005808F9005908FA0003132E
:101AA0000800031745088316930083124408831621
:101AB0009200831243088316910083124208831612
:101AC000900097019601950194018A1183120313E6
:101AD00061208A15031C822E03174908CD0048088F
:101AE000CC004708CB004608CA00D101D001CF0185
:101AF0007F30CE008A110313D8258A157A08031780
:101B0000CD007908CC007808CB007708CA004D08D2
:101B10008316930083124C088316920083124B089D
:101B20008316910083124A0883169000970196014C
:101B3000950194018A118312031361208A15031DF4
:101B4000822E03174908CD004808CC004708CB0077
:101B50004608CA00D101D001CF018030CE008A11E1
:101B60000313D8258A157A080317CD007908CC000D
:101B70007808CB007708CA004D08831693008312BB
:101B80004C088316920083124B088316910083122F
:101B90004A088316900097019601950194018A11D5
:101BA0008312031361208A15031D2B2E031742088D
:101BB000CA004308803ACB004408CC004508CD0059
:101BC000D1004C08D0004B08CF004A08CE000313C8
:101BD00000207A080317CD007908CC007808CB00E4
:101BE0007708CA004D088316930083124C088316A9
:101BF000920083124B088316910083124A088316C1
:101C000090008312490883169700831248088316B0
:101C100096008312470883169500831246088316A0
:101C200094008A1183120313C2218A157A080317BC
:101C3000CD007908CC007808CB007708CA004D08A1
:101C4000D1004C08D0004B08CF004A08CE00031347
:101C50007322612F812E03174208CA004308803A7D
:101C6000CB004408CC004508CD00D1004C08D00082
:101C70004B08CF004A08CE00031300207A08031750
:101C8000CD007908CC007808CB007708CA004D0851
:101C90008316930083124C088316920083124B081C
:101CA0008316910083124A08831690008312490814
:101CB00083169700831248088316960083124708FC
:101CC0008316950083124608831694008A118312A6
:101CD0000313C2218A157A080317CD007908CC00B6
:101CE0007808CB007708CA004D08D1004C08D00016
:101CF0004B08CF004A08CE00031373228030F80649
:101D0000612F612F0317450883169300831244083F
:101D100083169200831243088316910083124208AF
:101D20008316900097019601950194018A11831200
:101D3000031361208A15031CD82E03174908CD0010
:101D40004808CC004708CB004608CA00D101D001A2
:101D5000CF017F30CE008A110313D8258A157A0867
:101D60000317CD007908CC007808CB007708CA00AB
:101D70004D088316930083124C0883169200831239
:101D80004B088316910083124A088316900097012E
:101D90009601950194018A118312031361208A151B
:101DA0000319D82EF701F801F901FA01612F612F0B
:101DB0000317450883169300831244088316920084
:101DC0008312430883169100831242088316900001
:101DD00097019601950194018A11831203136120E2
:101DE0008A15031D102F03174908831693008312C9
:101DF00048088316920083124708831691008312C5
:101E000046088316900097019601950194018A1166
:101E10008312031361208A150318102F031D5D2FF1
:101E200003174508D1004408D0004308CF004208FA
:101E3000CE00031300207A080317CD007908CC00E8
:101E40007808CB007708CA004D08831693008312E8
:101E50004C088316920083124B088316910083125C
:101E60004A0883169000831249088316970083124C
:101E7000480883169600831247088316950083123C
:101E80004608831694008A1183120313C2218A150F
:101E90007A080317CD007908CC007808CB007708C2
:101EA000CA004D08D1004C08D0004B08CF004A08AA
:101EB000CE0003137322612F612FF701F801F9019E
:101EC000FA01080003172A080739F7002A0CF8005E
:101ED000F80CF80C1F30F80578082B0784008313E2
:101EE0002C1883170008F800F70A772FF80CF70B67
:101EF000762F0130F805031308000317A701270800
:101F0000073C031CA92F36302707840083130008E1
:101F1000A8002808AF000130B000B2018030B10045
:101F20008A110313F5268A1503172808AA00AC01A5
:101F3000AB0103136227781CA62F2630031727074F
:101F4000840083130008F800AA2F03130317A70ABD
:101F50007F2F7E2F031308008316620884008313EB
:101F60006318831701308000E5013E30E40009303A
:101F7000E6001930E7008A11831286278A15831636
:101F8000E5014730E4000930E6001930E7008A1126
:101F9000831286278A158316E5015030E400093044
:101FA000E6001930E7008A11831286278A15831606
:101FB000E5015930E4000930E6001930E7008A11E4
:101FC000831286278A158A110A16882B01308316F8
:101FD00062078400831363188317800A83128A11AF
:041FE0000A16BA2DF6
:102000008316E7018312031724088316031367025C
:102010000318202825306707E8000130E90003187D
:10202000E90A10306707840083170008EA0068088F
:1020300084008313691883176A088000E70A02285E
:1020400001306602253EE8000130E9000318E90A84
:10205000831225080317C100031324080317C000C7
:10206000031323080317BF00031322080317BE003E
:102070004130C500C630C4004E30C3006D30C200D0
:102080002030CA00C601C701C801C9014108FA00D1
:102090004008F9003F08F8003E08F7000310771CDD
:1020A0005F284208C60743080318430FC7074408C0
:1020B0000318440FC80745080318450FC907C90C82
:1020C000C80CC70CC60CFA0CF90CF80CF70CCA0BB0
:1020D0004E287A08C1007908C0007808BF00770848
:1020E000BE0039303E070313A20003173F08031355
:1020F000A300303003183130A3070317400803133F
:10210000A400003003180130A4070317410803138B
:10211000A500003003180130A5072408F7002508A2
:10212000F800F901FA0178080317C0007708BF002A
:102130004008C2003F08C1007F30C400FF30C30028
:10214000F801F901F701FA014408031DAA28430820
:102150000319C4281030C5000310C10DC20DF70DBE
:10216000FA0D44087A02031DB72843087702031CBE
:10217000C0284308F702031CFA034408FA020314B8
:10218000F80DF90DC50BAC287708F8007A08F900AE
:10219000790883160313EB007808EA000739F70083
:1021A000FA017708031794007A0895000A1283123F
:1021B000031340200A167A088316ED007908EC0014
:1021C0007808EB007708EA0083120317C501C40101
:1021D000C3018030C200831603136D0883120317F6
:1021E000C900831603136C0883120317C8008316F3
:1021F00003136B0883120317C700831603136A08BF
:1022000083120317C6000A128A15031351250A16F2
:102210008A117A08831603179300790892007808C8
:102220009100770890000A12831203139F210A1667
:102230008316680884008313691883177808800060
:10224000660883120317B9002530F8000130F90041
:1022500003138A110A160D2C0230831662078400BC
:10226000831363188317840A0008E70084030008B7
:10227000E6000130E9001030E8001530F800680889
:1022800084008313691883170008F7006608840028
:1022900083136718831777088000E60A0319E70A93
:1022A000E80A0319E90AF80B3F2983128A110A1672
:1022B0007A2C01300317A6001030A5002408A700CF
:1022C000E830A800AB010A12031317270A160317F8
:1022D0002808AB000A1203132B200A160317A901C2
:1022E0002708290203189929290825078400831340
:1022F000261883170008AA002A08AB000A12031345
:1023000017270A1603172808AB000A1203132B20FD
:102310000A160317AB010A12031317270A1603172D
:102320002808AB000A1203132B200A160317A90A68
:10233000702903138A110A16C12C831666088312AA
:102340000317A40083160313E70166086702031846
:10235000FA290A128A1583127D270A168A1178082B
:102360008316E80010306707840083176808800030
:10237000680883120317AB000A12031317270A1603
:1023800001300317A700A701A8012808073C031C78
:10239000EE2936302807840083130008A900290895
:1023A000AF000130B000B2018030B1000A12031357
:1023B000F5260A1603172908AA00AC01AB010A1278
:1023C0008A15031362270A168A11781CEB2901303B
:1023D0000317A70003130317A80AC529A7080319A1
:1023E000F229C329AB010A12031317270A16831611
:1023F000E70AA5291030F8000130F90083128A118C
:102400000A16C62C03173908240203190A2A0030B9
:10241000F800302A83160313E201831203172408FD
:1024200083160313620203182C2A103062078400FB
:1024300083170008E3002530620784008317000833
:10244000630203192A2A0030F80083120317302A86
:1024500083160313E20A0D2A0130F80083120317D2
:1024600003138A110A16AC2D8316E5013E30E400F1
:102470000930E6001930E7000A12831286270A168F
:102480008316E5014730E4000930E6001930E70023
:102490000A12831286270A168A110A16B22D643090
:1024A0000317AB000A1203132B200A16FF30031781
:1024B000AB000A12031317270A1602308316E20034
:1024C000963083120317AB000A1203132B200A164F
:1024D0008316E20B602A83120317AB010A1203135F
:1024E00017270A1602308316E2009630831203176C
:1024F000AB000A1203132B200A168316E20B752A6F
:10250000FF3083120317AB000A12031317270A16B2
:1025100002308316E200963083120317AB000A12D2
:1025200003132B200A168316E20B8B2A8312031740
:10253000AB010A12031317270A1602308316E200B2
:10254000963083120317AB000A1203132B200A16CE
:102550008316E20BA02AFF3083120317AB000A1286
:10256000031317270A1602308316E20096308312EF
:102570000317AB000A1203132B200A168316E20B73
:10258000B62A83120317AB010A12031317270A1680
:1025900002308316E200963083120317AB000A1252
:1025A00003132B200A168316E20BCB2A83128A11FF
:1025B0000A16BE2D03081F39830083161F149F14AB
:1025C0001F159F1107309C0083138312A001A101E6
:1025D0000130A6000230A7000430A8000830A9008E
:1025E0001030AA002030AB004030AC008030AD008D
:1025F0004030AE004130AF004230B0004330B10057
:102600004430B2004530B3004630B4004730B50026
:102610003830B6003930B7003A30B8003B30B90036
:102620003C30BA003D30BB003E30BC003F30BD0006
:10263000BE010130BF000330C0000730C1000F30C1
:10264000C2001F30C3003F30C4007F30C500FF30E0
:10265000C600C700FE30C800FC30C900F830CA0010
:10266000F030CB00E030CC00C030CD008030CE0068
:10267000CF01D001D100C030D200E030D300F03023
:10268000D400F830D500FC30D600FE30D700FF3043
:10269000D800D9007F30DA003F30DB001F30DC008B
:1026A0000F30DD000730DE000330DF000130E000D6
:1026B000E1018316E301A030E2000A128312042034
:1026C0000A1683162108E2000A1283121C280A1631
:1026D000F8080319762B0A12AD2F0A168316E301A8
:1026E000A030E2000A12831204200A168316A00802
:1026F000031D8B2B0A128A1583127D270A168A1155
:102700008316E301A030E2000A128A158312AC2F6F
:102710000A168A1183162208831203179000831663
:10272000031323088312031791008316031324084D
:1027300083120317920083160313250883120317CD
:10274000930083160313260883120317940083163D
:102750000313270883120317950083160313280811
:102760008312031796008316031329088312031795
:102770009700831603132A08831203179800831601
:1027800003132B08831203179900831603132C08D5
:10279000831203179A00831603132D08831203175D
:1027A0009B00831603132E08831203179C008316C5
:1027B00003132F08831203179D0083160313300899
:1027C000831203179E008316031331088312031725
:1027D0009F0083160313320883120317A000831689
:1027E0000313330883120317A1008316031334085D
:1027F00083120317A20083160313350883120317ED
:10280000A30083160313360883120317A40083164C
:1028100003132108E600831200287908FA007808DB
:102820008316CC007A08CD00CF016230CE0015307F
:10283000F8004C08840083134D1883170008F70034
:102840004E08840083134F18831777088000CE0A40
:102850000319CF0ACC0A0319CD0AF80B192CE3018E
:10286000A030E2008312620803179000031363088C
:1028700003179100031364080317920003136508FC
:1028800003179300031366080317940003136708E4
:1028900003179500031368080317960003136908CC
:1028A0000317970003136A080317980003136B08B4
:1028B0000317990003136C0803179A0003136D089C
:1028C00003179B0003136E0803179C0003136F0884
:1028D00003179D0070089E0071089F007208A000F9
:1028E0007308A1007408A2007508A3007608A4006C
:1028F00003132C29620803179000031363080317BE
:10290000910003136408031792000313650803176B
:102910009300031366080317940003136708031753
:10292000950003136808031796000313690803173B
:10293000970003136A080317980003136B08031723
:10294000990003136C0803179A0003136D0803170B
:102950009B0003136E0803179C0003136F080317F3
:102960009D0070089E0071089F007208A000730807
:10297000A1007408A2007508A3007608A400031340
:10298000592983162108E60083129D297908FA0047
:1029900078088316CC007908CD00CF01B730CE007F
:1029A0001530F8004C08840083134D188317000875
:1029B000F7004E08840083134F18831777088000B0
:1029C000CE0A0319CF0ACC0A0319CD0AF80BD22C70
:1029D00037088312031790008316031338088312F5
:1029E000031791008316031339088312031792000B
:1029F000831603133A0883120317930083160313F5
:102A00003B08831203179400831603133C088312B8
:102A100003179500831603133D08831203179600CE
:102A2000831603133E0883120317970083160313BC
:102A30003F0883120317980083160313400883127C
:102A400003179900831603134108831203179A0092
:102A5000831603134208831203179B008316031384
:102A60004308831203179C00831603134408831240
:102A700003179D00831603134508831203179E0056
:102A8000831603134608831203179F00831603134C
:102A9000470883120317A000831603134808831204
:102AA0000317A10083160313490883120317A2001A
:102AB000831603134A0883120317A3008316031314
:102AC0004B0883120317A400031362080317A50021
:102AD000031363080317A600031364080317A70072
:102AE000031365080317A800031366080317A9005A
:102AF000031367080317AA00031368080317AB0042
:102B0000031369080317AC0003136A080317AD0029
:102B100003136B080317AE0003136C080317AF0011
:102B200003136D080317B00003136E080317B100F9
:102B300003136F080317B2007008B3007108B400E4
:102B40007208B5007308B6007408B7007508B800BD
:102B50007608B9000313022A7808FB00FB08031962
:102B6000BD2D342A8316E301A030E2000A128A1533
:102B70008312E62F0A168A11C62D4F2A8316E30107
:102B8000A030E2000A12831204200A16612B6300AF
:02400E003A3F37
:00000001FF
;PIC16F877A
;CRC=4326  CREATED="09-dez-21 20:13"
